{
  "contractName": "KYC",
  "abi": [
    {
      "inputs": [],
      "payable": false,
      "stateMutability": "nonpayable",
      "type": "constructor"
    },
    {
      "constant": false,
      "inputs": [
        {
          "name": "_name",
          "type": "bytes32"
        },
        {
          "name": "_customerData",
          "type": "bytes32"
        }
      ],
      "name": "addKycRequest",
      "outputs": [
        {
          "name": "",
          "type": "uint8"
        }
      ],
      "payable": false,
      "stateMutability": "nonpayable",
      "type": "function"
    },
    {
      "constant": false,
      "inputs": [
        {
          "name": "_name",
          "type": "bytes32"
        },
        {
          "name": "_customerData",
          "type": "bytes32"
        }
      ],
      "name": "addCustomer",
      "outputs": [
        {
          "name": "",
          "type": "uint8"
        }
      ],
      "payable": false,
      "stateMutability": "nonpayable",
      "type": "function"
    },
    {
      "constant": false,
      "inputs": [
        {
          "name": "_username",
          "type": "bytes32"
        }
      ],
      "name": "removeKycRequest",
      "outputs": [
        {
          "name": "",
          "type": "uint8"
        }
      ],
      "payable": false,
      "stateMutability": "nonpayable",
      "type": "function"
    },
    {
      "constant": false,
      "inputs": [
        {
          "name": "_username",
          "type": "bytes32"
        }
      ],
      "name": "removeCustomer",
      "outputs": [
        {
          "name": "",
          "type": "uint8"
        }
      ],
      "payable": false,
      "stateMutability": "nonpayable",
      "type": "function"
    },
    {
      "constant": false,
      "inputs": [
        {
          "name": "_username",
          "type": "bytes32"
        },
        {
          "name": "_customerData",
          "type": "bytes32"
        }
      ],
      "name": "modifyCustomer",
      "outputs": [
        {
          "name": "",
          "type": "uint8"
        }
      ],
      "payable": false,
      "stateMutability": "nonpayable",
      "type": "function"
    },
    {
      "constant": true,
      "inputs": [
        {
          "name": "_username",
          "type": "bytes32"
        }
      ],
      "name": "viewCustomer",
      "outputs": [
        {
          "name": "",
          "type": "bytes32"
        },
        {
          "name": "",
          "type": "bytes32"
        },
        {
          "name": "",
          "type": "uint8"
        },
        {
          "name": "",
          "type": "uint8"
        },
        {
          "name": "",
          "type": "address"
        }
      ],
      "payable": false,
      "stateMutability": "view",
      "type": "function"
    },
    {
      "constant": false,
      "inputs": [
        {
          "name": "_username",
          "type": "bytes32"
        }
      ],
      "name": "upVote",
      "outputs": [
        {
          "name": "",
          "type": "uint8"
        }
      ],
      "payable": false,
      "stateMutability": "nonpayable",
      "type": "function"
    },
    {
      "constant": false,
      "inputs": [
        {
          "name": "_username",
          "type": "bytes32"
        }
      ],
      "name": "downvote",
      "outputs": [
        {
          "name": "",
          "type": "uint8"
        }
      ],
      "payable": false,
      "stateMutability": "nonpayable",
      "type": "function"
    },
    {
      "constant": true,
      "inputs": [
        {
          "name": "bank",
          "type": "address"
        }
      ],
      "name": "getBankReports",
      "outputs": [
        {
          "name": "",
          "type": "int256"
        }
      ],
      "payable": false,
      "stateMutability": "view",
      "type": "function"
    },
    {
      "constant": true,
      "inputs": [
        {
          "name": "_username",
          "type": "bytes32"
        }
      ],
      "name": "getCustomerStatus",
      "outputs": [
        {
          "name": "",
          "type": "bool"
        }
      ],
      "payable": false,
      "stateMutability": "view",
      "type": "function"
    },
    {
      "constant": true,
      "inputs": [
        {
          "name": "bank",
          "type": "address"
        }
      ],
      "name": "viewBankDetails",
      "outputs": [
        {
          "name": "",
          "type": "bytes32"
        },
        {
          "name": "",
          "type": "address"
        },
        {
          "name": "",
          "type": "bytes"
        },
        {
          "name": "",
          "type": "uint8"
        },
        {
          "name": "",
          "type": "uint256"
        },
        {
          "name": "",
          "type": "bool"
        }
      ],
      "payable": false,
      "stateMutability": "view",
      "type": "function"
    },
    {
      "constant": false,
      "inputs": [
        {
          "name": "bank",
          "type": "address"
        }
      ],
      "name": "reportBank",
      "outputs": [],
      "payable": false,
      "stateMutability": "nonpayable",
      "type": "function"
    },
    {
      "constant": false,
      "inputs": [
        {
          "name": "name",
          "type": "bytes32"
        },
        {
          "name": "ethAddress",
          "type": "address"
        },
        {
          "name": "regNumber",
          "type": "bytes"
        }
      ],
      "name": "addBank",
      "outputs": [],
      "payable": false,
      "stateMutability": "nonpayable",
      "type": "function"
    },
    {
      "constant": false,
      "inputs": [
        {
          "name": "ethAddress",
          "type": "address"
        }
      ],
      "name": "modifyBankKyc",
      "outputs": [],
      "payable": false,
      "stateMutability": "nonpayable",
      "type": "function"
    },
    {
      "constant": false,
      "inputs": [
        {
          "name": "ethAddress",
          "type": "address"
        }
      ],
      "name": "removeBank",
      "outputs": [],
      "payable": false,
      "stateMutability": "nonpayable",
      "type": "function"
    }
  ],
  "bytecode": "0x608060405234801561001057600080fd5b50336000806101000a81548173ffffffffffffffffffffffffffffffffffffffff021916908373ffffffffffffffffffffffffffffffffffffffff160217905550613fe5806100606000396000f3fe608060405234801561001057600080fd5b50600436106100f55760003560e01c80639649650c11610097578063c7a85a5611610066578063c7a85a5614610597578063c9091acc146105db578063faa5fd031461062d578063fe810d2e14610675576100f5565b80639649650c14610475578063a5a3d5c8146104b9578063a5a4980014610501578063b8af51da14610545576100f5565b80635cc4a477116100d35780635cc4a477146101e057806366c112fc146102325780636cf563a21461027a57806388cc8d8d1461035f576100f5565b806304704c92146100fa578063270b4554146101405780634491bf5e14610198575b600080fd5b6101266004803603602081101561011057600080fd5b810190808035906020019092919050505061070b565b604051808215151515815260200191505060405180910390f35b6101826004803603602081101561015657600080fd5b81019080803573ffffffffffffffffffffffffffffffffffffffff1690602001909291905050506108db565b6040518082815260200191505060405180910390f35b6101c4600480360360208110156101ae57600080fd5b8101908080359060200190929190505050610b06565b604051808260ff1660ff16815260200191505060405180910390f35b610216600480360360408110156101f657600080fd5b810190808035906020019092919080359060200190929190505050610f64565b604051808260ff1660ff16815260200191505060405180910390f35b61025e6004803603602081101561024857600080fd5b81019080803590602001909291905050506112c0565b604051808260ff1660ff16815260200191505060405180910390f35b61035d6004803603606081101561029057600080fd5b8101908080359060200190929190803573ffffffffffffffffffffffffffffffffffffffff169060200190929190803590602001906401000000008111156102d757600080fd5b8201836020820111156102e957600080fd5b8035906020019184600183028401116401000000008311171561030b57600080fd5b91908080601f016020809104026020016040519081016040528093929190818152602001838380828437600081840152601f19601f820116905080830192505050505050509192919290505050611834565b005b6103a16004803603602081101561037557600080fd5b81019080803573ffffffffffffffffffffffffffffffffffffffff169060200190929190505050611c49565b604051808781526020018673ffffffffffffffffffffffffffffffffffffffff1673ffffffffffffffffffffffffffffffffffffffff168152602001806020018560ff1660ff16815260200184815260200183151515158152602001828103825286818151815260200191508051906020019080838360005b8381101561043557808201518184015260208101905061041a565b50505050905090810190601f1680156104625780820380516001836020036101000a031916815260200191505b5097505050505050505060405180910390f35b6104b76004803603602081101561048b57600080fd5b81019080803573ffffffffffffffffffffffffffffffffffffffff16906020019092919050505061209e565b005b6104e5600480360360208110156104cf57600080fd5b8101908080359060200190929190505050612438565b604051808260ff1660ff16815260200191505060405180910390f35b6105436004803603602081101561051757600080fd5b81019080803573ffffffffffffffffffffffffffffffffffffffff16906020019092919050505061275e565b005b61057b6004803603604081101561055b57600080fd5b810190808035906020019092919080359060200190929190505050612b77565b604051808260ff1660ff16815260200191505060405180910390f35b6105d9600480360360208110156105ad57600080fd5b81019080803573ffffffffffffffffffffffffffffffffffffffff169060200190929190505050612e7f565b005b610611600480360360408110156105f157600080fd5b810190808035906020019092919080359060200190929190505050613087565b604051808260ff1660ff16815260200191505060405180910390f35b6106596004803603602081101561064357600080fd5b810190808035906020019092919050505061347d565b604051808260ff1660ff16815260200191505060405180910390f35b6106a16004803603602081101561068b57600080fd5b8101908080359060200190929190505050613894565b604051808681526020018581526020018460ff1660ff1681526020018360ff1660ff1681526020018273ffffffffffffffffffffffffffffffffffffffff1673ffffffffffffffffffffffffffffffffffffffff1681526020019550505050505060405180910390f35b60008073ffffffffffffffffffffffffffffffffffffffff16600560003373ffffffffffffffffffffffffffffffffffffffff1673ffffffffffffffffffffffffffffffffffffffff16815260200190815260200160002060010160009054906101000a900473ffffffffffffffffffffffffffffffffffffffff1673ffffffffffffffffffffffffffffffffffffffff1614156107f4576040517f08c379a0000000000000000000000000000000000000000000000000000000008152600401808060200182810382526024815260200180613db26024913960400191505060405180910390fd5b600073ffffffffffffffffffffffffffffffffffffffff166003600084815260200190815260200160002060020160039054906101000a900473ffffffffffffffffffffffffffffffffffffffff1673ffffffffffffffffffffffffffffffffffffffff1614156108b0576040517f08c379a0000000000000000000000000000000000000000000000000000000008152600401808060200182810382526022815260200180613d416022913960400191505060405180910390fd5b6003600083815260200190815260200160002060020160009054906101000a900460ff169050919050565b60008073ffffffffffffffffffffffffffffffffffffffff16600560003373ffffffffffffffffffffffffffffffffffffffff1673ffffffffffffffffffffffffffffffffffffffff16815260200190815260200160002060010160009054906101000a900473ffffffffffffffffffffffffffffffffffffffff1673ffffffffffffffffffffffffffffffffffffffff1614156109c4576040517f08c379a0000000000000000000000000000000000000000000000000000000008152600401808060200182810382526024815260200180613db26024913960400191505060405180910390fd5b600073ffffffffffffffffffffffffffffffffffffffff16600560008473ffffffffffffffffffffffffffffffffffffffff1673ffffffffffffffffffffffffffffffffffffffff16815260200190815260200160002060010160009054906101000a900473ffffffffffffffffffffffffffffffffffffffff1673ffffffffffffffffffffffffffffffffffffffff161415610aac576040517f08c379a0000000000000000000000000000000000000000000000000000000008152600401808060200182810382526027815260200180613eee6027913960400191505060405180910390fd5b600560008373ffffffffffffffffffffffffffffffffffffffff1673ffffffffffffffffffffffffffffffffffffffff16815260200190815260200160002060030160009054906101000a900460ff1660ff169050919050565b60008073ffffffffffffffffffffffffffffffffffffffff16600560003373ffffffffffffffffffffffffffffffffffffffff1673ffffffffffffffffffffffffffffffffffffffff16815260200190815260200160002060010160009054906101000a900473ffffffffffffffffffffffffffffffffffffffff1673ffffffffffffffffffffffffffffffffffffffff161415610bef576040517f08c379a000000000000000000000000000000000000000000000000000000000815260040180806020018281038252603a815260200180613e4e603a913960400191505060405180910390fd5b600560003373ffffffffffffffffffffffffffffffffffffffff1673ffffffffffffffffffffffffffffffffffffffff16815260200190815260200160002060050160009054906101000a900460ff16610c94576040517f08c379a000000000000000000000000000000000000000000000000000000000815260040180806020018281038252602b815260200180613d87602b913960400191505060405180910390fd5b600073ffffffffffffffffffffffffffffffffffffffff166003600084815260200190815260200160002060020160039054906101000a900473ffffffffffffffffffffffffffffffffffffffff1673ffffffffffffffffffffffffffffffffffffffff161415610d50576040517f08c379a0000000000000000000000000000000000000000000000000000000008152600401808060200182810382526022815260200180613d416022913960400191505060405180910390fd5b60008090505b600480549050811015610f5957610d8460048281548110610d7357fe5b906000526020600020015484613aff565b15610f4e573373ffffffffffffffffffffffffffffffffffffffff166003600085815260200190815260200160002060020160039054906101000a900473ffffffffffffffffffffffffffffffffffffffff1673ffffffffffffffffffffffffffffffffffffffff1614610e43576040517f08c379a000000000000000000000000000000000000000000000000000000000815260040180806020018281038252603b815260200180613f38603b913960400191505060405180910390fd5b610e4c83612438565b506003600084815260200190815260200160002060008082016000905560018201600090556002820160006101000a81549060ff02191690556002820160016101000a81549060ff02191690556002820160026101000a81549060ff02191690556002820160036101000a81549073ffffffffffffffffffffffffffffffffffffffff0219169055505060006001820190505b600480549050811015610f2d5760048181548110610ef957fe5b906000526020600020015460046001830381548110610f1457fe5b9060005260206000200181905550806001019050610edf565b506004805480919060019003610f439190613bb5565b506001915050610f5f565b806001019050610d56565b50600090505b919050565b60008073ffffffffffffffffffffffffffffffffffffffff16600560003373ffffffffffffffffffffffffffffffffffffffff1673ffffffffffffffffffffffffffffffffffffffff16815260200190815260200160002060010160009054906101000a900473ffffffffffffffffffffffffffffffffffffffff1673ffffffffffffffffffffffffffffffffffffffff16141561104d576040517f08c379a000000000000000000000000000000000000000000000000000000000815260040180806020018281038252603a815260200180613e4e603a913960400191505060405180910390fd5b600560003373ffffffffffffffffffffffffffffffffffffffff1673ffffffffffffffffffffffffffffffffffffffff16815260200190815260200160002060050160009054906101000a900460ff166110f2576040517f08c379a000000000000000000000000000000000000000000000000000000000815260040180806020018281038252602b815260200180613d87602b913960400191505060405180910390fd5b600073ffffffffffffffffffffffffffffffffffffffff166001600084815260200190815260200160002060020160009054906101000a900473ffffffffffffffffffffffffffffffffffffffff1673ffffffffffffffffffffffffffffffffffffffff16146111ad576040517f08c379a000000000000000000000000000000000000000000000000000000000815260040180806020018281038252603e815260200180613f73603e913960400191505060405180910390fd5b826001600084815260200190815260200160002060000181905550816001600084815260200190815260200160002060010181905550336001600084815260200190815260200160002060020160006101000a81548173ffffffffffffffffffffffffffffffffffffffff021916908373ffffffffffffffffffffffffffffffffffffffff1602179055506002829080600181540180825580915050906001820390600052602060002001600090919290919091505550600560003373ffffffffffffffffffffffffffffffffffffffff1673ffffffffffffffffffffffffffffffffffffffff168152602001908152602001600020600401600081548092919060010191905055506001905092915050565b60008073ffffffffffffffffffffffffffffffffffffffff16600560003373ffffffffffffffffffffffffffffffffffffffff1673ffffffffffffffffffffffffffffffffffffffff16815260200190815260200160002060010160009054906101000a900473ffffffffffffffffffffffffffffffffffffffff1673ffffffffffffffffffffffffffffffffffffffff1614156113a9576040517f08c379a000000000000000000000000000000000000000000000000000000000815260040180806020018281038252603a815260200180613e4e603a913960400191505060405180910390fd5b600560003373ffffffffffffffffffffffffffffffffffffffff1673ffffffffffffffffffffffffffffffffffffffff16815260200190815260200160002060050160009054906101000a900460ff1661144e576040517f08c379a000000000000000000000000000000000000000000000000000000000815260040180806020018281038252602b815260200180613d87602b913960400191505060405180910390fd5b600073ffffffffffffffffffffffffffffffffffffffff166003600084815260200190815260200160002060020160039054906101000a900473ffffffffffffffffffffffffffffffffffffffff1673ffffffffffffffffffffffffffffffffffffffff16141561150a576040517f08c379a0000000000000000000000000000000000000000000000000000000008152600401808060200182810382526022815260200180613d416022913960400191505060405180910390fd5b60006007600084815260200190815260200160002060003373ffffffffffffffffffffffffffffffffffffffff1673ffffffffffffffffffffffffffffffffffffffff16815260200190815260200160002054146115b3576040517f08c379a0000000000000000000000000000000000000000000000000000000008152600401808060200182810382526021815260200180613d206021913960400191505060405180910390fd5b60036000838152602001908152602001600020600201600181819054906101000a900460ff168092919060010191906101000a81548160ff021916908360ff16021790555050426007600084815260200190815260200160002060003373ffffffffffffffffffffffffffffffffffffffff1673ffffffffffffffffffffffffffffffffffffffff16815260200190815260200160002081905550600560068054905010158015611698575060036006805490508161166e57fe5b046003600084815260200190815260200160002060020160019054906101000a900460ff1660ff16115b80156116ef57506003600083815260200190815260200160002060020160029054906101000a900460ff1660ff166003600084815260200190815260200160002060020160019054906101000a900460ff1660ff16115b801561172f575060036006805490508161170557fe5b046003600084815260200190815260200160002060020160029054906101000a900460ff1660ff16105b1561182b5760016003600084815260200190815260200160002060020160006101000a81548160ff021916908315150217905550600073ffffffffffffffffffffffffffffffffffffffff16600160006003600086815260200190815260200160002060010154815260200190815260200160002060020160009054906101000a900473ffffffffffffffffffffffffffffffffffffffff1673ffffffffffffffffffffffffffffffffffffffff1614156117e657fe5b60018060006003600086815260200190815260200160002060010154815260200190815260200160002060020160146101000a81548160ff0219169083151502179055505b60019050919050565b6000809054906101000a900473ffffffffffffffffffffffffffffffffffffffff1673ffffffffffffffffffffffffffffffffffffffff163373ffffffffffffffffffffffffffffffffffffffff16146118d9576040517f08c379a0000000000000000000000000000000000000000000000000000000008152600401808060200182810382526024815260200180613d636024913960400191505060405180910390fd5b600073ffffffffffffffffffffffffffffffffffffffff16600560008473ffffffffffffffffffffffffffffffffffffffff1673ffffffffffffffffffffffffffffffffffffffff16815260200190815260200160002060010160009054906101000a900473ffffffffffffffffffffffffffffffffffffffff1673ffffffffffffffffffffffffffffffffffffffff16146119c0576040517f08c379a0000000000000000000000000000000000000000000000000000000008152600401808060200182810382526022815260200180613e2c6022913960400191505060405180910390fd5b82600560008473ffffffffffffffffffffffffffffffffffffffff1673ffffffffffffffffffffffffffffffffffffffff1681526020019081526020016000206000018190555081600560008473ffffffffffffffffffffffffffffffffffffffff1673ffffffffffffffffffffffffffffffffffffffff16815260200190815260200160002060010160006101000a81548173ffffffffffffffffffffffffffffffffffffffff021916908373ffffffffffffffffffffffffffffffffffffffff16021790555080600560008473ffffffffffffffffffffffffffffffffffffffff1673ffffffffffffffffffffffffffffffffffffffff1681526020019081526020016000206002019080519060200190611ade929190613be1565b506000600560008473ffffffffffffffffffffffffffffffffffffffff1673ffffffffffffffffffffffffffffffffffffffff16815260200190815260200160002060030160006101000a81548160ff021916908360ff1602179055506001600560008473ffffffffffffffffffffffffffffffffffffffff1673ffffffffffffffffffffffffffffffffffffffff16815260200190815260200160002060050160006101000a81548160ff0219169083151502179055506000600560008473ffffffffffffffffffffffffffffffffffffffff1673ffffffffffffffffffffffffffffffffffffffff1681526020019081526020016000206004018190555060068290806001815401808255809150509060018203906000526020600020016000909192909190916101000a81548173ffffffffffffffffffffffffffffffffffffffff021916908373ffffffffffffffffffffffffffffffffffffffff16021790555050505050565b600080606060008060008073ffffffffffffffffffffffffffffffffffffffff16600560003373ffffffffffffffffffffffffffffffffffffffff1673ffffffffffffffffffffffffffffffffffffffff16815260200190815260200160002060010160009054906101000a900473ffffffffffffffffffffffffffffffffffffffff1673ffffffffffffffffffffffffffffffffffffffff161415611d3a576040517f08c379a0000000000000000000000000000000000000000000000000000000008152600401808060200182810382526024815260200180613db26024913960400191505060405180910390fd5b600073ffffffffffffffffffffffffffffffffffffffff16600560008973ffffffffffffffffffffffffffffffffffffffff1673ffffffffffffffffffffffffffffffffffffffff16815260200190815260200160002060010160009054906101000a900473ffffffffffffffffffffffffffffffffffffffff1673ffffffffffffffffffffffffffffffffffffffff161415611e22576040517f08c379a0000000000000000000000000000000000000000000000000000000008152600401808060200182810382526027815260200180613eee6027913960400191505060405180910390fd5b600560008873ffffffffffffffffffffffffffffffffffffffff1673ffffffffffffffffffffffffffffffffffffffff16815260200190815260200160002060000154600560008973ffffffffffffffffffffffffffffffffffffffff1673ffffffffffffffffffffffffffffffffffffffff16815260200190815260200160002060010160009054906101000a900473ffffffffffffffffffffffffffffffffffffffff16600560008a73ffffffffffffffffffffffffffffffffffffffff1673ffffffffffffffffffffffffffffffffffffffff168152602001908152602001600020600201600560008b73ffffffffffffffffffffffffffffffffffffffff1673ffffffffffffffffffffffffffffffffffffffff16815260200190815260200160002060030160009054906101000a900460ff16600560008c73ffffffffffffffffffffffffffffffffffffffff1673ffffffffffffffffffffffffffffffffffffffff16815260200190815260200160002060040154600560008d73ffffffffffffffffffffffffffffffffffffffff1673ffffffffffffffffffffffffffffffffffffffff16815260200190815260200160002060050160009054906101000a900460ff16838054600181600116156101000203166002900480601f0160208091040260200160405190810160405280929190818152602001828054600181600116156101000203166002900480156120825780601f1061205757610100808354040283529160200191612082565b820191906000526020600020905b81548152906001019060200180831161206557829003601f168201915b5050505050935095509550955095509550955091939550919395565b6000809054906101000a900473ffffffffffffffffffffffffffffffffffffffff1673ffffffffffffffffffffffffffffffffffffffff163373ffffffffffffffffffffffffffffffffffffffff1614612143576040517f08c379a0000000000000000000000000000000000000000000000000000000008152600401808060200182810382526024815260200180613d636024913960400191505060405180910390fd5b600073ffffffffffffffffffffffffffffffffffffffff16600560008373ffffffffffffffffffffffffffffffffffffffff1673ffffffffffffffffffffffffffffffffffffffff16815260200190815260200160002060010160009054906101000a900473ffffffffffffffffffffffffffffffffffffffff1673ffffffffffffffffffffffffffffffffffffffff16141561222b576040517f08c379a0000000000000000000000000000000000000000000000000000000008152600401808060200182810382526026815260200180613e886026913960400191505060405180910390fd5b600560008273ffffffffffffffffffffffffffffffffffffffff1673ffffffffffffffffffffffffffffffffffffffff1681526020019081526020016000206000808201600090556001820160006101000a81549073ffffffffffffffffffffffffffffffffffffffff02191690556002820160006122aa9190613c61565b6003820160006101000a81549060ff021916905560048201600090556005820160006101000a81549060ff0219169055505060008090505b600680549050811015612433578173ffffffffffffffffffffffffffffffffffffffff166006828154811061231357fe5b9060005260206000200160009054906101000a900473ffffffffffffffffffffffffffffffffffffffff1673ffffffffffffffffffffffffffffffffffffffff1614156124285760006001820190505b60068054905081101561240b576006818154811061237d57fe5b9060005260206000200160009054906101000a900473ffffffffffffffffffffffffffffffffffffffff16600660018303815481106123b857fe5b9060005260206000200160006101000a81548173ffffffffffffffffffffffffffffffffffffffff021916908373ffffffffffffffffffffffffffffffffffffffff160217905550806001019050612363565b5060068054809190600190036124219190613ca9565b5050612435565b8060010190506122e2565b505b50565b60008073ffffffffffffffffffffffffffffffffffffffff16600560003373ffffffffffffffffffffffffffffffffffffffff1673ffffffffffffffffffffffffffffffffffffffff16815260200190815260200160002060010160009054906101000a900473ffffffffffffffffffffffffffffffffffffffff1673ffffffffffffffffffffffffffffffffffffffff161415612521576040517f08c379a0000000000000000000000000000000000000000000000000000000008152600401808060200182810382526024815260200180613db26024913960400191505060405180910390fd5b600073ffffffffffffffffffffffffffffffffffffffff16600560003373ffffffffffffffffffffffffffffffffffffffff1673ffffffffffffffffffffffffffffffffffffffff16815260200190815260200160002060010160009054906101000a900473ffffffffffffffffffffffffffffffffffffffff1673ffffffffffffffffffffffffffffffffffffffff161415612609576040517f08c379a000000000000000000000000000000000000000000000000000000000815260040180806020018281038252603a815260200180613e4e603a913960400191505060405180910390fd5b60008090505b60028054905081101561275357612653600160006002848154811061263057fe5b906000526020600020015481526020019081526020016000206000015484613aff565b1561274857600160006002838154811061266957fe5b9060005260206000200154815260200190815260200160002060008082016000905560018201600090556002820160006101000a81549073ffffffffffffffffffffffffffffffffffffffff02191690556002820160146101000a81549060ff0219169055505060006001820190505b60028054905081101561272757600281815481106126f357fe5b90600052602060002001546002600183038154811061270e57fe5b90600052602060002001819055508060010190506126d9565b50600280548091906001900361273d9190613bb5565b506001915050612759565b80600101905061260f565b50600090505b919050565b600073ffffffffffffffffffffffffffffffffffffffff16600560003373ffffffffffffffffffffffffffffffffffffffff1673ffffffffffffffffffffffffffffffffffffffff16815260200190815260200160002060010160009054906101000a900473ffffffffffffffffffffffffffffffffffffffff1673ffffffffffffffffffffffffffffffffffffffff161415612846576040517f08c379a000000000000000000000000000000000000000000000000000000000815260040180806020018281038252603a815260200180613e4e603a913960400191505060405180910390fd5b600560003373ffffffffffffffffffffffffffffffffffffffff1673ffffffffffffffffffffffffffffffffffffffff16815260200190815260200160002060050160009054906101000a900460ff166128eb576040517f08c379a000000000000000000000000000000000000000000000000000000000815260040180806020018281038252602b815260200180613d87602b913960400191505060405180910390fd5b600073ffffffffffffffffffffffffffffffffffffffff16600560008373ffffffffffffffffffffffffffffffffffffffff1673ffffffffffffffffffffffffffffffffffffffff16815260200190815260200160002060010160009054906101000a900473ffffffffffffffffffffffffffffffffffffffff1673ffffffffffffffffffffffffffffffffffffffff1614156129d3576040517f08c379a0000000000000000000000000000000000000000000000000000000008152600401808060200182810382526027815260200180613eee6027913960400191505060405180910390fd5b600560008273ffffffffffffffffffffffffffffffffffffffff1673ffffffffffffffffffffffffffffffffffffffff168152602001908152602001600020600301600081819054906101000a900460ff168092919060010191906101000a81548160ff021916908360ff16021790555050600560008273ffffffffffffffffffffffffffffffffffffffff1673ffffffffffffffffffffffffffffffffffffffff16815260200190815260200160002060050160009054906101000a900460ff168015612aa75750600560068054905010155b8015612b135750600360068054905081612abd57fe5b04600560008373ffffffffffffffffffffffffffffffffffffffff1673ffffffffffffffffffffffffffffffffffffffff16815260200190815260200160002060030160009054906101000a900460ff1660ff16115b15612b74576000600560008373ffffffffffffffffffffffffffffffffffffffff1673ffffffffffffffffffffffffffffffffffffffff16815260200190815260200160002060050160006101000a81548160ff0219169083151502179055505b50565b60008073ffffffffffffffffffffffffffffffffffffffff16600560003373ffffffffffffffffffffffffffffffffffffffff1673ffffffffffffffffffffffffffffffffffffffff16815260200190815260200160002060010160009054906101000a900473ffffffffffffffffffffffffffffffffffffffff1673ffffffffffffffffffffffffffffffffffffffff161415612c60576040517f08c379a000000000000000000000000000000000000000000000000000000000815260040180806020018281038252603a815260200180613e4e603a913960400191505060405180910390fd5b600560003373ffffffffffffffffffffffffffffffffffffffff1673ffffffffffffffffffffffffffffffffffffffff16815260200190815260200160002060050160009054906101000a900460ff16612d05576040517f08c379a000000000000000000000000000000000000000000000000000000000815260040180806020018281038252602b815260200180613d87602b913960400191505060405180910390fd5b600073ffffffffffffffffffffffffffffffffffffffff166003600085815260200190815260200160002060020160039054906101000a900473ffffffffffffffffffffffffffffffffffffffff1673ffffffffffffffffffffffffffffffffffffffff161415612dc1576040517f08c379a0000000000000000000000000000000000000000000000000000000008152600401808060200182810382526022815260200180613d416022913960400191505060405180910390fd5b81600360008581526020019081526020016000206001018190555060006003600085815260200190815260200160002060020160016101000a81548160ff021916908360ff16021790555060006003600085815260200190815260200160002060020160026101000a81548160ff021916908360ff16021790555060006003600085815260200190815260200160002060020160006101000a81548160ff021916908315150217905550612e7483612438565b506001905092915050565b6000809054906101000a900473ffffffffffffffffffffffffffffffffffffffff1673ffffffffffffffffffffffffffffffffffffffff163373ffffffffffffffffffffffffffffffffffffffff1614612f24576040517f08c379a0000000000000000000000000000000000000000000000000000000008152600401808060200182810382526024815260200180613d636024913960400191505060405180910390fd5b600073ffffffffffffffffffffffffffffffffffffffff16600560008373ffffffffffffffffffffffffffffffffffffffff1673ffffffffffffffffffffffffffffffffffffffff16815260200190815260200160002060010160009054906101000a900473ffffffffffffffffffffffffffffffffffffffff1673ffffffffffffffffffffffffffffffffffffffff161415613029576040517f08c379a000000000000000000000000000000000000000000000000000000000815260040180806020018281038252601e8152602001807f42616e6b206973206e6f742070726573656e7420696e206e6574776f726b000081525060200191505060405180910390fd5b6000600560008373ffffffffffffffffffffffffffffffffffffffff1673ffffffffffffffffffffffffffffffffffffffff16815260200190815260200160002060050160006101000a81548160ff02191690831515021790555050565b60008073ffffffffffffffffffffffffffffffffffffffff16600560003373ffffffffffffffffffffffffffffffffffffffff1673ffffffffffffffffffffffffffffffffffffffff16815260200190815260200160002060010160009054906101000a900473ffffffffffffffffffffffffffffffffffffffff1673ffffffffffffffffffffffffffffffffffffffff161415613170576040517f08c379a000000000000000000000000000000000000000000000000000000000815260040180806020018281038252603a815260200180613e4e603a913960400191505060405180910390fd5b600560003373ffffffffffffffffffffffffffffffffffffffff1673ffffffffffffffffffffffffffffffffffffffff16815260200190815260200160002060050160009054906101000a900460ff16613215576040517f08c379a000000000000000000000000000000000000000000000000000000000815260040180806020018281038252602b815260200180613d87602b913960400191505060405180910390fd5b600073ffffffffffffffffffffffffffffffffffffffff166003600085815260200190815260200160002060020160039054906101000a900473ffffffffffffffffffffffffffffffffffffffff1673ffffffffffffffffffffffffffffffffffffffff16146132d0576040517f08c379a0000000000000000000000000000000000000000000000000000000008152600401808060200182810382526056815260200180613dd66056913960600191505060405180910390fd5b600073ffffffffffffffffffffffffffffffffffffffff166001600084815260200190815260200160002060020160009054906101000a900473ffffffffffffffffffffffffffffffffffffffff1673ffffffffffffffffffffffffffffffffffffffff16141561338c576040517f08c379a0000000000000000000000000000000000000000000000000000000008152600401808060200182810382526040815260200180613eae6040913960400191505060405180910390fd5b826003600085815260200190815260200160002060000181905550816003600085815260200190815260200160002060010181905550336003600085815260200190815260200160002060020160036101000a81548173ffffffffffffffffffffffffffffffffffffffff021916908373ffffffffffffffffffffffffffffffffffffffff16021790555060006003600085815260200190815260200160002060020160016101000a81548160ff021916908360ff16021790555060048390806001815401808255809150509060018203906000526020600020016000909192909190915055506001905092915050565b60008073ffffffffffffffffffffffffffffffffffffffff16600560003373ffffffffffffffffffffffffffffffffffffffff1673ffffffffffffffffffffffffffffffffffffffff16815260200190815260200160002060010160009054906101000a900473ffffffffffffffffffffffffffffffffffffffff1673ffffffffffffffffffffffffffffffffffffffff161415613566576040517f08c379a000000000000000000000000000000000000000000000000000000000815260040180806020018281038252603a815260200180613e4e603a913960400191505060405180910390fd5b600560003373ffffffffffffffffffffffffffffffffffffffff1673ffffffffffffffffffffffffffffffffffffffff16815260200190815260200160002060050160009054906101000a900460ff1661360b576040517f08c379a000000000000000000000000000000000000000000000000000000000815260040180806020018281038252602b815260200180613d87602b913960400191505060405180910390fd5b600073ffffffffffffffffffffffffffffffffffffffff166003600084815260200190815260200160002060020160039054906101000a900473ffffffffffffffffffffffffffffffffffffffff1673ffffffffffffffffffffffffffffffffffffffff1614156136c7576040517f08c379a0000000000000000000000000000000000000000000000000000000008152600401808060200182810382526022815260200180613d416022913960400191505060405180910390fd5b60006008600084815260200190815260200160002060003373ffffffffffffffffffffffffffffffffffffffff1673ffffffffffffffffffffffffffffffffffffffff1681526020019081526020016000205414613770576040517f08c379a0000000000000000000000000000000000000000000000000000000008152600401808060200182810382526023815260200180613f156023913960400191505060405180910390fd5b60036000838152602001908152602001600020600201600281819054906101000a900460ff168092919060010191906101000a81548160ff021916908360ff1602179055505060056006805490501015801561380157506003600680549050816137d657fe5b046003600084815260200190815260200160002060020160029054906101000a900460ff1660ff1610155b156138365760006003600084815260200190815260200160002060020160006101000a81548160ff0219169083151502179055505b426008600084815260200190815260200160002060003373ffffffffffffffffffffffffffffffffffffffff1673ffffffffffffffffffffffffffffffffffffffff1681526020019081526020016000208190555060019050919050565b60008060008060008073ffffffffffffffffffffffffffffffffffffffff16600560003373ffffffffffffffffffffffffffffffffffffffff1673ffffffffffffffffffffffffffffffffffffffff16815260200190815260200160002060010160009054906101000a900473ffffffffffffffffffffffffffffffffffffffff1673ffffffffffffffffffffffffffffffffffffffff161415613983576040517f08c379a0000000000000000000000000000000000000000000000000000000008152600401808060200182810382526024815260200180613db26024913960400191505060405180910390fd5b600073ffffffffffffffffffffffffffffffffffffffff166003600088815260200190815260200160002060020160039054906101000a900473ffffffffffffffffffffffffffffffffffffffff1673ffffffffffffffffffffffffffffffffffffffff161415613a3f576040517f08c379a0000000000000000000000000000000000000000000000000000000008152600401808060200182810382526022815260200180613d416022913960400191505060405180910390fd5b600360008781526020019081526020016000206000015460036000888152602001908152602001600020600101546003600089815260200190815260200160002060020160019054906101000a900460ff16600360008a815260200190815260200160002060020160029054906101000a900460ff16600360008b815260200190815260200160002060020160039054906101000a900473ffffffffffffffffffffffffffffffffffffffff169450945094509450945091939590929450565b6000602060ff16602060ff1614613b195760009050613baf565b60008090505b602060ff16811015613ba957828160208110613b3757fe5b1a60f81b7effffffffffffffffffffffffffffffffffffffffffffffffffffffffffffff1916848260208110613b6957fe5b1a60f81b7effffffffffffffffffffffffffffffffffffffffffffffffffffffffffffff191614613b9e576000915050613baf565b806001019050613b1f565b50600190505b92915050565b815481835581811115613bdc57818360005260206000209182019101613bdb9190613cd5565b5b505050565b828054600181600116156101000203166002900490600052602060002090601f016020900481019282601f10613c2257805160ff1916838001178555613c50565b82800160010185558215613c50579182015b82811115613c4f578251825591602001919060010190613c34565b5b509050613c5d9190613cfa565b5090565b50805460018160011615610100020316600290046000825580601f10613c875750613ca6565b601f016020900490600052602060002090810190613ca59190613cfa565b5b50565b815481835581811115613cd057818360005260206000209182019101613ccf9190613cfa565b5b505050565b613cf791905b80821115613cf3576000816000905550600101613cdb565b5090565b90565b613d1c91905b80821115613d18576000816000905550600101613d00565b5090565b9056fe42616e6b20616c7265616479207570766f7465642074686520637573746f6d6572437573746f6d6572206973206e6f742070726573656e7420696e206e6574776f726b4f6e6c792041646d696e2063616e20706572666f726d20746865206f7065726174696f6e42616e6b20686173206265656e206d61726b6564206661756c74792e20436f6e746163742041646d696e21596f75722042616e6b206973206e6f742070726573656e7420696e206e6574776f726b2e5468697320637573746f6d657220697320616c72656164792070726573656e742c20706c656173652063616c6c206d6f64696679437573746f6d657220746f20656469742074686520637573746f6d6572206461746142616e6b20697320616c72656164792070726573656e7420696e206e6574776f726b596f75722042616e6b206973206e6f742070726573656e7420696e206e6574776f726b2e20436f6e746163742041646d696e20746f206164642e446566696e65642042616e6b206973206e6f742070726573656e7420696e206e6574776f726b437573746f6d657220646f6573206e6f742068617665206b796320726571756573742e204b696e646c79202072616973652061206b796320726571756573742e446566696e65642042616e6b206973206e6f742070726573656e7420696e206e6574776f726b2e42616e6b20616c726561647920646f776e766f7465642074686520637573746f6d65724f6e6c79207468652062616e6b2077686963682061646465642074686520637573746f6d65722063616e2072656d6f766520637573746f6d65722e54686973207573657220616c7265616479206861732061204b5943207265717565737420776974682073616d65206461746120696e2070726f636573732ea265627a7a723058207c46de67dc14bf8fd2a2719b190e1209a0fffa054195f87a8e7f055fb8fefb5964736f6c63430005090032",
  "source": "pragma solidity ^0.5.9;\n\n\ncontract KYC{\n\n    address  admin;\n\n\n    struct Customer{\n        bytes32 name;\n        bytes32 data_hash;\n        bool kycStatus;\n        uint8 upvote;\n        uint8 downvote;\n        address bank;\n    }\n\n    struct Bank{\n        bytes32 name;\n        address ethAddress;\n        bytes regNumber;\n        uint8 reports;\n        uint256 kyc_count;\n        bool kycPermission;\n\n    }\n\n    struct KycRequest{\n        bytes32 name;\n        bytes32 data_hash;\n        address bank;\n        bool status;\n    }\n\n    constructor() public{\n\n        //contract deployer will be the admin of KYC network\n        admin = msg.sender;\n    }\n\n    mapping(bytes32 => KycRequest) KycRequests;\n    bytes32[] customersData;\n\n    mapping(bytes32 => Customer) customers;\n    bytes32[] customerNames;\n\n    mapping( address => Bank) banks;\n    address[] bankAddresses;\n\n    mapping( bytes32 => mapping(address => uint256)) upVotes;\n\n    mapping( bytes32 => mapping(address => uint256)) downvotes;\n\n    /*\n    Method to add a kyc request\n    @param _name - customer username\n    @param _customerData - customer's kyc data\n    @return - 1 for success\n    */\n    function addKycRequest(bytes32 _name, bytes32 _customerData) public checkBankEligibility returns(uint8){\n        require(KycRequests[_customerData].bank == address(0), \"This user already has a KYC request with same data in process.\");\n\n        //add kyc request in request map\n        KycRequests[_customerData].name = _name;\n        KycRequests[_customerData].data_hash = _customerData ;\n        KycRequests[_customerData].bank = msg.sender;\n\n        //add kyc request in request list\n        customersData.push(_customerData);\n\n        //increment bank kyc request counter\n        banks[msg.sender].kyc_count++;\n\n        return 1;\n    }\n\n    /*\n    Method to add a customer\n    @param _name - customer username\n    @param _customerData - customer's kyc data\n    @return - 1 for success\n    */\n    function addCustomer(bytes32 _name, bytes32 _customerData) public checkBankEligibility returns(uint8){\n        require(customers[_name].bank == address(0), \"This customer is already present, please call modifyCustomer to edit the customer data\");\n        require(KycRequests[_customerData].bank != address(0), \"Customer does not have kyc request. Kindly  raise a kyc request.\");\n\n        //add customer in customers map\n        customers[_name].name = _name;\n        customers[_name].data_hash = _customerData;\n        customers[_name].bank = msg.sender;\n        customers[_name].upvote = 0;\n\n        //add customers in customers list\n        customerNames.push(_name);\n\n        return 1;\n    }\n\n    /*\n    Method to remove a kyc request\n    @param _username - customer name\n    @return - 1 for success, 0 for failure\n    */\n    function removeKycRequest(bytes32 _username) public checkBankExists returns(uint8){\n        require(banks[msg.sender].ethAddress != address(0), \"Your Bank is not present in network. Contact Admin to add.\");\n\n\n        for(uint256 i =0; i< customersData.length; ++i){\n\n            //find kyc request from user name\n            if(bytesEquals(KycRequests[customersData[i]].name, _username)){\n\n                //delete kyc request from map\n                delete KycRequests[customersData[i]];\n\n                //delete kyc request record from list\n                for(uint256 j=i+1; j< customersData.length ; ++j){\n                    customersData[j-1] = customersData[j];\n                }\n\n                //decrement list length\n                customersData.length--;\n                return 1;\n            }\n        }\n        return 0;\n    }\n\n    /*\n    Method to remove customer from global list\n    @param _username - customer username\n    @return - 1 for success, 0 for failure\n    */\n    function removeCustomer(bytes32 _username) public checkBankEligibility returns(uint8){\n        require( customers[_username].bank != address(0), \"Customer is not present in network\");\n\n        for(uint256 i=0; i<customerNames.length; ++i){\n            if(bytesEquals( customerNames[i], _username)){\n\n                //check bank is the owner of customer record\n                require(customers[_username].bank == msg.sender, \"Only the bank which added the customer can remove customer.\");\n\n\n                //delete customer kyc request\n                removeKycRequest(_username);\n\n\n                //delete customer from mapping\n                delete customers[_username];\n\n                //delete customer name from list\n                for(uint256 j = i+1; j< customerNames.length; ++j){\n                    customerNames[j-1] = customerNames[j];\n                }\n                customerNames.length--;\n\n                return 1;\n            }\n        }\n        return 0;\n    }\n\n    /*\n    Method to modify a customer's kyc data\n    @param _username - customer name\n    @param _customerData - customer's kyc data\n    @return - 1 for success\n    */\n    function modifyCustomer( bytes32 _username, bytes32 _customerData) public checkBankEligibility returns(uint8){\n        require( customers[_username].bank != address(0), \"Customer is not present in network\");\n\n        //update customer data hash and set upvote,downvote to zero\n        customers[_username].data_hash = _customerData;\n        customers[_username].upvote = 0;\n        customers[_username].downvote = 0;\n        customers[_username].kycStatus = false;\n\n        //delete  kyc request of Customer\n        removeKycRequest(_username);\n\n        return 1;\n    }\n\n    /*\n    Method to view customer details\n    @param _username - username\n    @return - customer details in following order (name, kyc data, upvote, downvote and bank associated)\n    */\n    function viewCustomer(bytes32 _username) public view checkBankExists returns(bytes32, bytes32,  uint8, uint8, address){\n        require( customers[_username].bank != address(0), \"Customer is not present in network\");\n\n        //return customer details (name, kyc data, upvote, downvote and bank associated)\n        return (customers[_username].name, customers[_username].data_hash, customers[_username].upvote,customers[_username].downvote, customers[_username].bank );\n    }\n\n\n    /*\n    Method to upvote a customer\n    @param _username - customer name\n    @return - 1 for success\n    */\n    function upVote(bytes32 _username) public checkBankEligibility returns(uint8){\n\n        require( customers[_username].bank != address(0), \"Customer is not present in network\");\n        require( upVotes[_username][msg.sender] == 0, \"Bank already upvoted the customer\");\n\n        //increment upvote counter\n        customers[_username].upvote++;\n        upVotes[_username][msg.sender] = now;\n\n        //enable kyc status,\n        //if network contains atleast 5 bank and\n        //upvotes are greater than downvotes and\n        //upvote > 1/3rd of number of bank\n        //downvote should be lesser than 1/3rd of number of bank\n        if(bankAddresses.length >= 5 &&\n        customers[_username].upvote > (bankAddresses.length/3) &&\n        customers[_username].upvote > customers[_username].downvote &&\n        customers[_username].downvote < (bankAddresses.length/3)){  //condition to stop toggling of kyc status, when upvote is done after kyc status made false due to downvotes\n\n            //enable customer kyc status\n            customers[_username].kycStatus = true;\n\n            //enable  customer's kyc request status\n            assert(KycRequests[customers[_username].data_hash].bank != address(0));\n\n            ////enable kyc status in customer's kyc request\n            KycRequests[customers[_username].data_hash].status = true;\n\n        }\n        return 1;\n\n    }\n\n    /*\n    Method to downvote a customer\n    @param _username - customer name\n    @return - 1 for success\n    */\n    function downvote(bytes32 _username) public checkBankEligibility returns(uint8){\n        require( customers[_username].bank != address(0), \"Customer is not present in network\");\n        require( downvotes[_username][msg.sender] == 0, \"Bank already downvoted the customer\");\n\n        //increment customer's downvote counter\n        customers[_username].downvote++;\n\n        //revoke kyc status of customer,\n        //if customer is downvoted by 1/3rd of banks and\n        //network contains atleast 5 bank\n        if(bankAddresses.length >= 5 && customers[_username].downvote >= (bankAddresses.length/3)){\n\n            customers[_username].kycStatus = false;\n        }\n        downvotes[_username][msg.sender] = now;\n        return 1;\n    }\n\n    /*\n    Method to compare two bytes32 data\n    @param _name - customer name\n    @param _customerData - customer's kyc data\n    @return - true if matches, otherwise false\n    */\n    function bytesEquals(bytes32 a, bytes32 b) internal pure returns(bool){\n\n        //compare length\n        if(a.length != b.length)\n            return false;\n\n        //compare each byte\n        for(uint i=0;i< a.length; ++i){\n            if(a[i] != b[i])\n                return false;\n        }\n        return true;\n    }\n\n    /*\n    modifier to check bank eligibility\n    */\n    modifier checkBankEligibility(){\n        require(banks[msg.sender].ethAddress != address(0), \"Your Bank is not present in network. Contact Admin to add.\");\n        require(banks[msg.sender].kycPermission, \"Bank has been marked faulty. Contact Admin!\");\n\n        _;\n    }\n\n    /*\n    checks bank is exisitng in kyc network\n    */\n    modifier checkBankExists(){\n        require(banks[msg.sender].ethAddress != address(0), \"Your Bank is not present in network.\");\n        _;\n    }\n\n    /*\n    Gets number of reports on a bank\n    @param bank - bank address\n    @return - an integer\n    */\n    function getBankReports(address bank) public view checkBankExists returns(int256){\n        require(banks[bank].ethAddress != address(0), \"Defined Bank is not present in network.\");\n        return banks[bank].reports;\n    }\n\n    /*\n    Gets customer status\n    @param _username - customer name\n    @return - true if customer has verified kyc, else false\n    */\n    function getCustomerStatus( bytes32 _username) public view checkBankExists returns(bool){\n        require( customers[_username].bank != address(0), \"Customer is not present in network\");\n        return customers[_username].kycStatus;\n    }\n\n    /*\n    Gets bank details\n    @param bank - bank address\n    @return - bank details in order as follows (name, address, registration number, number of reports, number of kyc requests raised, kyc kycPermission)\n    */\n    function viewBankDetails( address bank) public view checkBankExists returns(  bytes32 , address, bytes memory, uint8, uint256, bool){\n        require(banks[bank].ethAddress != address(0), \"Defined Bank is not present in network.\");\n        return (banks[bank].name, banks[bank].ethAddress, banks[bank].regNumber, banks[bank].reports, banks[bank].kyc_count, banks[bank].kycPermission);\n    }\n\n    /*\n    Report a bank\n    @param bank - bank address\n    */\n    function reportBank(address bank) public checkBankEligibility {\n        require(banks[bank].ethAddress != address(0), \"Defined Bank is not present in network.\");\n\n        //increment bank's report counter\n        banks[bank].reports++ ;\n\n        //disable bank's kyc permission if,\n        //no. of bank is greater than 5 and\n        //no. reports is greater than 1/3rd of no. of bank\n        if( banks[bank].kycPermission &&\n        bankAddresses.length >=5  &&\n        banks[bank].reports > (bankAddresses.length/3)){        //no. reports is greater than 1/3rd of no. of bank\n            banks[bank].kycPermission = false;\n        }\n\n    }\n\n    /*\n    modifier to check msg sender is the admin\n    @param message - error message to be sent if transaction fails\n    */\n    modifier isAdmin(){\n        require( msg.sender == admin, \"Only Admin can perform the operation\");\n        _;\n    }\n\n    /*\n    Method to add a bank, only admin can perform this operation\n    @param name - bank name\n    @param ethAddress - bank address\n    @param regNumber - registration number for bank\n    @return - 1 for success\n    */\n    function addBank(bytes32 name, address ethAddress, bytes memory regNumber)public isAdmin()\n    {\n        require(banks[ethAddress].ethAddress == address(0), \"Bank is already present in network\");\n\n        //add bank in map\n        banks[ethAddress].name = name;\n        banks[ethAddress].ethAddress = ethAddress;\n        banks[ethAddress].regNumber = regNumber;\n        banks[ethAddress].reports = 0;\n        banks[ethAddress].kycPermission = true;\n        banks[ethAddress].kyc_count = 0;\n\n        //add bank address in list\n        bankAddresses.push(ethAddress);\n    }\n\n    /*\n    Method to modify the bank kyc permission,  only admin can perform this operation\n    @param ethAddress - bank address\n    */\n    function modifyBankKyc(address ethAddress) public isAdmin(){\n        require(banks[ethAddress].ethAddress != address(0), \"Bank is not present in network\");\n        banks[ethAddress].kycPermission = false;\n    }\n\n\n    /*\n    Method to remove a bank from network,  only admin can perform this operation\n    @param ethAddress - bank address\n    */\n    function removeBank(address ethAddress) public isAdmin(){\n        require(banks[ethAddress].ethAddress != address(0), \"Defined Bank is not present in network\");\n\n        //delete bank\n        delete banks[ethAddress];\n\n        for(uint256 i=0; i< bankAddresses.length; ++i){\n\n            //find bank in list\n            if(bankAddresses[i] ==  ethAddress){\n                for(uint256 j =i+1; j<bankAddresses.length; ++j){\n\n                    //delete bank\n                    bankAddresses[j-1] = bankAddresses[j];\n                }\n\n                //decrement number of bank\n                bankAddresses.length--;\n                return;\n            }\n        }\n    }\n\n}\n",
  "sourcePath": "/home/ethereum/Desktop/phase-3-final/contracts/KYC.sol",
  "compiler": {
    "name": "solc",
    "version": "0.5.9+commit.e560f70d.Emscripten.clang"
  },
  "schemaVersion": "3.3.3",
  "updatedAt": "2021-01-18T17:40:39.606Z",
  "networkType": "ethereum",
  "devdoc": {
    "methods": {}
  },
  "userdoc": {
    "methods": {}
  }
}